:020000040800F2
:10000000681A002071020008790200087B020008CB
:100010007D0200087F020008810200080000000045
:100020000000000000000000000000008302000843
:10003000850200080000000087020008890200080D
:100040008B0200088B0200088B0200088B0200085C
:100050008B0200088B0200088B0200088B0200084C
:100060008B0200088B0200088B0200088B0200083C
:100070008B0200088B0200088B0200088B0200082C
:100080008B0200088B0200088B0200088B0200081C
:100090008B0200088B0200088B0200088B0200080C
:1000A0008B0200088B0200088B0200088B020008FC
:1000B0008B0200088B0200088B0200088B020008EC
:1000C0008B0200088B0200088B0200088B020008DC
:1000D0005D1500088B0200088B0200088B020008E7
:1000E0008B0200088B0200088B0200088B020008BC
:1000F0008B0200088B0200088B0200088B020008AC
:100100008B0200088B0200088B020008E91500082A
:100110008B0200088B0200088B0200088B0200088B
:100120008B0200088B0200088B0200088B0200087B
:100130008B0200088B0200088B0200088B0200086B
:100140008B0200088B0200088B0200088B0200085B
:100150008B0200088B0200088B0200088B0200084B
:100160008B0200088B0200088B0200088B0200083B
:100170008B0200088B0200088B02000800000000C0
:100180008B0200088B02000800F002F800F060F813
:100190000AA090E8000C82448344AAF10107DA45E2
:1001A00001D100F055F8AFF2090EBAE80F0013F0D4
:1001B000010F18BFFB1A43F0010318474C28000039
:1001C0006C28000010F8013B0A4413F0030408BF38
:1001D00010F8014B1D1108BF10F8015B641E05D01B
:1001E00010F8016B641E01F8016BF9D1002D15D0D8
:1001F00010F8014B03F00C030C2BA1EB04040ABF15
:1002000010F8013BA4EB8314A4EB032405F10103D4
:1002100014F8016B5B1E01F8016BF9D5914238BFF0
:1002200010F8013BD1D3704700230024002500269D
:10023000103A28BF78C1FBD8520728BF30C148BF49
:100240000B6070471FB502F069FB1FBD10B510BDF4
:1002500000F02FFE1146FFF7F5FF01F019FD00F049
:100260004DFE03B4FFF7F2FF03BC00F051FE0000A7
:100270000948804709480047FEE7FEE7FEE7FEE73A
:10028000FEE7FEE7FEE7FEE7FEE7FEE70448054976
:10029000054A064B70470000311800088901000824
:1002A00068140020681A00206816002068160020D4
:1002B0002DE9F05F0446FF48FD4901600268FE48F1
:1002C000FE490026824232D10860E661A66166617D
:1002D0002661A662666226626068DFF8E4A3DFF842
:1002E000E4B304F11005814610F0FF4F21D02088BF
:1002F00002F0A1F852465B4601F018FF0746884617
:10030000484602F093FA3A46434601F067FE074634
:1003100088460821484602F038FB02F087FA3A4640
:10032000434601F003FF02F059F8A88302E00E6093
:10033000FEE7AE83A76817F0FF4F1FD0B4F8008028
:10034000404602F078F806468946384602F06EFAD2
:1003500052465B4602F082F84B46324601F03EFEC2
:1003600006460F464FEA082002F065F832463B4643
:1003700001F0DCFE02F032F8E88300E0EE83208832
:100380004FF47A71B0FBF1F02884BDE8F09F2DE9BD
:10039000FF4FCA49C84A97B00968914200D0FEE7AA
:1003A0001A99103100250A6903924A6908928A69EC
:1003B0000792D1E901620C680592CA6806921A9AFE
:1003C0008B8B92890993CB8B0E9316E10778BE4BEA
:1003D000A3F5807813F807C0B444CDF844C018F8EA
:1003E000076010F802A004EB4606A3F5007413F8AA
:1003F0000AC0E75D0CEB0609CDF82C9010F81290BE
:1004000018F80A6007EB460613F809C014F80A70DA
:100410000CEB060E18F8096002EB420C07EB4606DF
:1004200014F80970CDF84CC010F80C9013F809C0FE
:100430000CEB060B18F8096007EB460614F8097078
:1004400010F8229013F809C0B444CDF848C018F849
:10045000096002EB820C07EB460614F8097010F8ED
:100460000C9013F809C00CEB060A18F80960DDF8C7
:100470004CC007EB460614F8097010F81C9013F8EE
:1004800009C0B444CDF850C018F8096014F809C088
:1004900007EB4606C2EBC207DDF82C90C75DDB5DBB
:1004A0003344139318F80730E45D0CEB4306C9EBB3
:1004B000C903DDF844C003EB4307CCEBCC0307EBE7
:1004C0008303CEEB0E1C63440BEB8B0C03EB4C0352
:1004D000DDF848C00CEB4C0803EB48030AEB4A0C70
:1004E0006344DDF850C09C44069B6344DDF844C07F
:1004F00001930CEBCC039B0003EB4703CEEBCE0741
:1005000007EB0E1703EB47030BEB4B0703EB07134C
:10051000CAEBCA0703EB081307EB0A17DDF850C054
:1005200003EB4703CCEBCC0707EB470803EB48078B
:10053000139BDDF848C003EBC30307EB8307059B60
:100540000CEB8C0C3B4406930BEB4B070EEB4E0372
:100550007F004B4407EB4C073B44CAEB0A173B4474
:1005600003EB0807139BC3EBC30307EB830305935C
:10057000019B0E9FA3F500338FB1039F07EB030C84
:10058000089FACEB0707DDF838C007FB0CF74FEA14
:10059000E77C07EB1C673F12039708933B46099FD4
:1005A00077B1DDF81CC0C7F5807707FB0CF7DDF8E5
:1005B00024C00CFB0373DF1703EB17631B120793B5
:1005C000199F7B43002B01DD083300E0083BDF1758
:1005D00003EB17733D4F1B11BB4203DB7F42BB4252
:1005E00000DC1F463B461A9FDDF860C000EBC200EE
:1005F000FF896F436D1C2CF817300B8CAB423FF713
:10060000E5AEC1E90046059888600698C860039881
:100610000861089848610798886198B21BB0BDE8E6
:10062000F08F2DE9FF4F2549234A97B00968914281
:1006300000D0FEE71A99103100250A6903924A6931
:1006400008928A690792D1E901620C680592CA682A
:1006500006921A9A8B8B92890993CB8B0E9328E181
:100660000778194BA3F5807813F807C0B444CDF888
:1006700044C018F8076010F802A004EB4606A3F582
:10068000007413F80AC0E75D0CEB0609CDF82C9056
:1006900010F8129018F80A6007EB460613F809C024
:1006A00014F80A700CEB060E18F8096010E0000050
:1006B000C2A507F400300240CDB5E8B52C000020FB
:1006C0001F85EB51B81E1940300200204480FFFF07
:1006D00007EB460614F8097002EB420CCDF84CC04B
:1006E00010F80C9013F809C00CEB060B18F8096011
:1006F00007EB460614F8097010F8229013F809C0A9
:10070000B444CDF848C018F8096002EB820C07EB3E
:10071000460614F8097010F80C9013F809C00CEB99
:10072000060A18F80960DDF84CC007EB460614F815
:10073000097010F81C9013F809C0B444CDF850C0EB
:1007400018F8096014F809C007EB4606C2EBC207A7
:10075000DDF82C90C75DDB5D3344139318F8073048
:10076000E45D0CEB4306C9EBC903DDF844C003EBC1
:100770004307CCEBCC0307EB8303CEEB0E1C6344A7
:100780000BEB8B0C03EB4C03DDF848C00CEB4C0877
:1007900003EB48030AEB4A0C6344DDF850C09C4469
:1007A000069B6344DDF844C001930CEBCC039B0033
:1007B00003EB4703CEEBCE0707EB0E1703EB470324
:1007C0000BEB4B0703EB0713CAEBCA0703EB08134A
:1007D00007EB0A17DDF850C003EB4703CCEBCC075F
:1007E00007EB470803EB4807139BDDF848C003EB12
:1007F000C30307EB8307059B0CEB8C0C3B44069370
:100800000BEB4B070EEB4E037F004B4407EB4C0703
:100810003B44CAEB0A173B4403EB0807139BC3EBAB
:10082000C30307EB83030593019B0E9FA3F50033DE
:100830008FB1039F07EB030C089FACEB0707DDF8B4
:1008400038C007FB0CF74FEAE77C07EB1C673F1249
:10085000039708933B46099F77B1DDF81CC0C7F5A5
:10086000807707FB0CF7DDF824C00CFB0373DF1760
:1008700003EB17631B120793199F7B43002B01DDCA
:10088000083300E0083BDF1703EB1773FE4F1B1123
:10089000BB4203DB7F42BB4200DC1F463B461A9F44
:1008A000DDF860C000EBC200FF896F436D1C2CF8BF
:1008B00017300B8CAB423FF7D3AEC1E90046059829
:1008C00088600698C860039808610898486107988E
:1008D000886198B2A2E62DE9FF4FEC49EC4A97B047
:1008E0000968914200D0FEE71A99103100250A6983
:1008F00003924A6908928A690792D1E901620C68F9
:100900000592CA6806921A9A8B8B92890993CB8BAF
:100910000E9317E1DD4B07781B1D03F5807813F864
:1009200007C0B444CDF844C018F8076010F802A01E
:1009300004EB460603F5007413F80AC0E75D0CEB00
:100940000609CDF82C9010F8129018F80A6007EB01
:10095000460613F809C014F80A700CEB060E18F8D6
:10096000096002EB420C07EB460614F80970CDF85B
:100970004CC010F80C9013F809C00CEB060B18F8DB
:10098000096007EB460614F8097010F8229013F876
:1009900009C0B444CDF848C018F8096002EB820CD5
:1009A00007EB460614F8097010F80C9013F809C00C
:1009B0000CEB060A18F80960DDF84CC007EB460698
:1009C00014F8097010F81C9013F809C0B444CDF85D
:1009D00050C018F8096014F809C007EB4606C2EBCE
:1009E000C207DDF82C90C75DDB5D3344139318F824
:1009F0000730E45D0CEB4306C9EBC903DDF844C0E6
:100A000003EB4307CCEBCC0307EB8303CEEB0E1CCD
:100A100063440BEB8B0C03EB4C03DDF848C00CEB91
:100A20004C0803EB48030AEB4A0C6344DDF850C062
:100A30009C44069B6344DDF844C001930CEBCC035B
:100A40009B0003EB4703CEEBCE0707EB0E1703EB40
:100A500047030BEB4B0703EB0713CAEBCA0703EB88
:100A6000081307EB0A17DDF850C003EB4703CCEB84
:100A7000CC0707EB470803EB4807139BDDF848C09A
:100A800003EBC30307EB8307059B0CEB8C0C3B4488
:100A900006930BEB4B070EEB4E037F004B4407EB2B
:100AA0004C073B44CAEB0A173B4403EB0807139B74
:100AB000C3EBC30307EB83030593019B0E9FA3F5D1
:100AC00000338FB1039F07EB030C089FACEB0707C4
:100AD000DDF838C007FB0CF74FEAE77C07EB1C6733
:100AE0003F12039708933B46099F77B1DDF81CC07E
:100AF000C7F5807707FB0CF7DDF824C00CFB037308
:100B0000DF1703EB17631B120793199F7B43002B1F
:100B100001DD083300E0083BDF1703EB17735A4F82
:100B20001B11BB4203DB7F42BB4200DC1F463B463E
:100B30001A9FDDF860C000EBC200FF896F436D1C97
:100B40002CF817300B8CAB423FF7E4AEC1E90046FE
:100B5000059888600698C8600398086108984861FD
:100B60000798886198B259E52DE9FF4F4749484AEF
:100B700098B00968914200D0FEE71B99103100251A
:100B80000A6902924A6906928A690492D1E901626D
:100B90000B680592CA6808921B9A94898A8B0992FD
:100BA000CA8B10926BE1394A0778121D02F58078E2
:100BB00012F807C0B444CDF858C018F8076010F810
:100BC00004A003EB460602F5007312F80AC0DF5DCD
:100BD0000CEB0609CDF8289010F8149018F80A606C
:100BE00007EB460612F809C013F80A70B444CDF8B2
:100BF0002CC018F8096004EB440A07EB460613F80A
:100C0000097010F80A9012F809C0B444CDF838C041
:100C100018F8096007EB460613F8097010F82490DD
:100C200012F809C0B444CDF83CC018F8096004EBD0
:100C3000840C07EB460613F80970CDF854C010F881
:100C40000C9012F809C0B444CDF844C018F80960FB
:100C500007EB460613F8097010F81A9012F809C04D
:100C60000CEB060E18F80960C4EBC40C07EB460643
:100C700013F8097010F80C9012F809C00CEB060A72
:100C800018F8096006E000004480FFFF2C000020F7
:100C9000CDB5E8B507EB460613F8097010F83490A7
:100CA00012F809C00CEB060B18F8096013F809C01C
:100CB00007EB460604EBC407DDF82890C75DD25D5C
:100CC000DB5D324418F807600CEB4606DDF858C0CF
:100CD000CCEB0C1707EB470709EBC90C07EB8C07AC
:100CE000DDF82CC0CCEBCC0C07EB8C07DDF838C062
:100CF000CCEBCC0C0CEB4C0C6744DDF83CC0CCEBE3
:100D00000C1C6744DDF844C00CEB8C0C07EB4C0763
:100D10000EEB4E0C07EB4C070AEB4A0C674407EB53
:100D20000B0C089F6744DDF858C001970CEBCC070B
:100D3000C7EB8C17C9EB891C6744DDF82CC00CEBA2
:100D40008C0808EB8C1C6744DDF838C00CEBCC0831
:100D500008EB8C1C6744DDF83CC00EEBCE08CCEBF6
:100D60000C1C0CEB8C0C6744DDF844C0CCEB0C1C69
:100D70000CEB8C0C674408EB8E1C67440AEB8A086A
:100D800008EB8A1C6744CBEB8B1C674402EBC20C5C
:100D9000CCEB821CBC44059FC2EB02126744DDF819
:100DA0002CC008970CEB4C07DDF838C04F440CEB17
:100DB0004C0C4FEA4C08DDF83CC002EB42020CEB55
:100DC0008C0C08EB4C0C6744DDF844C0CCEB0C1CDD
:100DD0006744CEEBCE0C0CEB4C0C6744CAEBCA0C50
:100DE00007EB8C070BEBCB0C07EB8C073A44059217
:100DF000019F109AA7F57A378AB1029A02EB070C85
:100E0000069AACEB0202DDF840C0069702FB0CF23A
:100E10004FEAE27C02EB1C62121202921746099A18
:100E20007AB1DDF810C0C2F5807202FB0CF2DDF879
:100E300024C00CFB0722D71702EB176212121746C9
:100E400004921A9A5743002F01DD103700E0103F3B
:100E5000FA1707EBD262144F5211BA4203DB7F42FA
:100E6000BA4200DC17463A461B9FDDF864C0FF8992
:100E70006F436D1C2CF81720159A00EB42000A8C6A
:100E8000AA423FF790AEC1E90036059888600898FD
:100E9000C8600298086106984861049888611CB08F
:100EA00090B2BDE8F08F00004480FFFF70477047AC
:100EB0007047754600F028F8AE460500694653466F
:100EC00020F00700854618B020B5FFF7DFF9BDE830
:100ED00020404FF000064FF000074FF000084FF0A1
:100EE000000B21F00701AC46ACE8C009ACE8C00932
:100EF000ACE8C009ACE8C0098D4670470446AFF3C2
:100F000000802046FFF7ADF9004870470414002028
:100F100001491820ABBEFEE7260002007047000022
:100F20000146054800680289481C90FBF2F302FB69
:100F3000130080B27047000018000020F0B50A4688
:100F400000210023002400BF3DE0012505FA01F344
:100F5000156805EA03049C4234D105684F00032656
:100F6000BE40B543056015794E00B540066835436F
:100F700005601579012D02D01579022D16D18568ED
:100F80004F000326BE40B543856055794E00B540FD
:100F9000866835438560456801268E40B5434560C7
:100FA000456896798E40B6B235434560C5684F00B6
:100FB0000326BE40B543C560D5794E00B540C6682E
:100FC0003543C560491C1029BFD3F0BDF0B50023DF
:100FD00000244D07ED0E02FA05F3CE1000F12005B6
:100FE00055F826504E07F70E0F26BE40B543CF10DA
:100FF00000F1200646F82750CE1000F1200555F8E4
:10100000265045EA0304CE1000F1200545F826409D
:10101000F0BD0183704721B1028842F480620280F2
:1010200004E002884FF6FF331A400280704770B523
:1010300002460024002500230020958A138B1B0400
:1010400045EA030626F07F4404EA01068E4201D1F8
:10105000012000E0002070BD21B1028842F00102B1
:10106000028004E002884FF6FE731A400280704747
:1010700021B1028842F48072028004E002884FF6B7
:10108000FF631A400280704721B1028842F4007267
:10109000028004E002884FF6FF531A400280704736
:1010A0000CB50246002000230193009300920B0F21
:1010B000019321F07F41019B1BB1009B14330093EE
:1010C00003E0090C009B18330093009B1B680B4046
:1010D0000BB1012000E000200CBD00002DE9FF470E
:1010E00004460D460026B1460427DFF8CC80A688CA
:1010F0004FF6C0700640684600F0BCF9DDF8088085
:101100002E48B8FBF0F01FFA80F946EA0906A680DF
:1011100020884FF6FE710840208000262849286864
:1011200088420CD828684000B8FBF0F087B2042F42
:1011300000DA04273E4309F10100208427E0E88813
:101140004BF6FF71884206D1286800EB4000B8FBDF
:10115000F0F087B209E0286800EBC00101EB001055
:10116000B8FBF0F087B247F48047C7F30B0008B92B
:1011700047F0010747F4004006434FF4967009FB1F
:1011800000F04FF47A7190FBF1F0401C2084A683AC
:10119000208840F00100208026884FF6F530064078
:1011A000A8886989084306432680A88929890843B5
:1011B0002081BDE8FF87000000127A0040420F0046
:1011C000A08601000146088AC0B2704712B141F002
:1011D000010101E001F0FE010182704701827047C8
:1011E00021B1828B42F48062828304E0828B4FF6CD
:1011F000FF331A40828370472DE9F04F0025022308
:101200000024012700220026944690469146B0F81B
:101210001CA04FF2400B0AEA0B0AA0F81CA04FF0EA
:10122000020AA0F820A0858BD1F808A0BAF1020F1D
:1012300001D100BF6CE0B1F804A0BAF1000F01D1F8
:10124000012700E00227DFF810A1DAF800A00AF475
:10125000000ABAF1000F09D0DFF8FCA0DAF800A00C
:101260002AF4000ADFF8F0B0CBF800A0DFF8E8A01D
:101270000AF17C0ADAF800A0CAF38818DFF8D8A0CF
:101280000AF17C0ADAF800A0CAF30279DFF8C8A0F4
:10129000AAF1040ADAF800A00AF03F0CDFF8BCA0BB
:1012A000BAFBFCFA0AFB08FABAFBF9F6B1F806A099
:1012B000BAF5007F0ED14FEA162A0AEB8A0A4FEAE6
:1012C0004A0AD1F808B0BAFBFBFA0AF1050A1FFA7C
:1012D0008AF20FE04FEA471AB6FBFAFA0AEB8A0ADB
:1012E0004FEA4A0AD1F808B0BAFBFBFA0AF1050A3C
:1012F0001FFA8AF24FF00A0AB2FBFAF202F0010476
:10130000A2EB040ACAF34F034FF6FF7A0AEA042459
:10131000022B01DBFF2B01DD02230024B1F806A024
:101320004AEA040A4AEA030AA0F820A0B1F804A095
:10133000B1F80CB04AEA0B0AB1F802B04AEA0B0A5B
:10134000B1F800B04AEA0B0A4AF4006A4AEA050515
:101350008583BDE8F08F00000838024000127A0053
:10136000054800680088044909684988884201D115
:10137000012070470020FCE71800002070B5002114
:1013800000230F22C4781CB3174C246804F4E064D3
:10139000C4F5E064C4F30721C1F10404E3B20A41D7
:1013A00044789C40E1B28478144021430C07210E1C
:1013B0000E4C05786155047804F01F050124AC40FB
:1013C00005786D11AD0005F1E025C5F8004109E093
:1013D000047804F01F050124AC40054D0678761111
:1013E00045F8264070BD00000CED00E000E400E090
:1013F00080E100E029B1064A12680243044B1A60FA
:1014000004E0034A12688243014B1A6070470000EF
:101410003038024029B1064A12680243044B1A6070
:1014200004E0034A12688243014B1A6070470000CF
:101430004038024029B1064A12680243044B1A6040
:1014400004E0034A12688243014B1A6070470000AF
:101450002038024029B1064A12680243044B1A6040
:1014600004E0034A12688243014B1A60704700008F
:1014700024380240F0B50021002200240225002675
:101480000223324F3F6807F00C0121B1042905D037
:10149000082937D105E02E4F076036E02D4F076051
:1014A00033E02A4F3F1F3F68C7F38056274F3F1F47
:1014B0003F6807F03F036EB1264FB7FBF3F7DFF845
:1014C0008CC0ACF1040CDCF800C0CCF3881C07FB2A
:1014D0000CF40CE01E4FB7FBF3F7DFF870C0ACF173
:1014E000040CDCF800C0CCF3881C07FB0CF4174F8D
:1014F0003F1F3F68C7F301477F1C7D00B4FBF5F732
:10150000076002E0124F076000BF00BF0F4F3F6847
:1015100007F0F0010909104F7A5C0768D74047606F
:101520000A4F3F6807F4E051890A0B4F7A5C47681D
:10153000D7408760054F3F6807F46041490B064F6D
:101540007A5C4768D740C760F0BD000008380240A9
:101550000024F40000127A001C00002010B5602165
:101560001A4800F0A4F880B31948006840F400500D
:1015700017490860154800F0C4F816490880084665
:101580000088000A097840EA0121134802680068CF
:10159000401C114B1860114820F8121018460068C2
:1015A000402812D10020194608600D4B28220D4911
:1015B0000A48FEF7ECFE002405E00A4931F8140061
:1015C00000F03AFB641C102CF7D310BD003800402B
:1015D000140C0240100000200C00002064030020C6
:1015E00030030020E403002010B57121124800F000
:1015F0005EF8F8B111480078A0B9FFF7B1FE20B14C
:1016000000210D4800F080F814E000F0FDFA0C49CC
:10161000088008460188084800F076F8012007494C
:10162000087007E006480188034800F06DF80020C4
:101630000249087010BD0000003C0040120000206C
:101640001400002010B504461148844208D101213D
:101650008014FFF7FFFE0021A014FFF7FBFE16E049
:101660000C48844208D101210014FFF7E3FE002159
:101670002014FFF7DFFE0AE00748844207D101216A
:10168000C013FFF7D7FE0021E013FFF7D3FE10BD14
:101690000030014000380040003C0040024600207D
:1016A00013890B400BB1012000E000207047F0B51A
:1016B0000246002000240023002501F00F07012628
:1016C000BE40B4B20B1101269E40B3B2968806EA22
:1016D00003051689264016B10DB1012000E0002057
:1016E000F0BD30B5002400230C110125A540ABB29C
:1016F0001AB185881D43858002E085889D438580D9
:1017000030BD014688897047818170470CB5002043
:10171000019000904148006840F480303F490860E3
:1017200000BF3E48006800F4003000900198401C63
:101730000190009818B90198B0F5C06FF1D1374801
:10174000006800F4003010B10120009001E000209A
:1017500000900098012846D130484030006840F0A1
:1017600080502E49403108602D48006840F44040C8
:101770002B4908602948083000682849083108606A
:101780000846006840F4004008600846006840F4DD
:10179000A05008602348091F0860081F006840F037
:1017A0008070091F086000BF1C48006800F00070CE
:1017B0000028F9D040F205601B490860174808303E
:1017C000006820F0030015490831086008460068E9
:1017D00040F00200086000BF10480830006800F0C8
:1017E0000C000828F8D10D480830006820F40000EB
:1017F0000A49083108600D480849843108600748E3
:10180000006840F080600549086000BF0348006838
:1018100000F000600028F9D00CBD00000038024044
:101820000070004008544007003C024080400030F7
:1018300010B51548006840F470001349086013485B
:10184000006840F001001149086000200F4908318C
:1018500008600E4800680E4908400C4908600D48B1
:10186000091D0860081F006820F48020091F086017
:10187000002006490C310860FFF748FF4FF0006078
:1018800001498039086010BD88ED00E00038024051
:10189000FFFFF6FE1030002430B58DB0FF2433205A
:1018A0008DF8280000208DF829008DF82A000120ED
:1018B0008DF82B000AA8FFF761FD01210820FFF732
:1018C00099FD10200B9001208DF8300000208DF83C
:1018D000320002208DF833008DF831000BA9AF489B
:1018E000FFF72CFB01210220FFF784FD4FF410705D
:1018F0000B9002208DF8300001208DF8320000207E
:101900008DF8330002208DF831000BA9A448FFF7B1
:1019100015FB04220621A248FFF758FB04220921E7
:101920009F48FFF753FB01210846FFF763FD102096
:101930000B9002208DF8300000208DF832008DF8D9
:10194000330002208DF831000BA99648FFF7F6FA14
:10195000062204219348FFF739FB01210420FFF7F9
:1019600049FD4FF4A4500B9002208DF83000002068
:101970008DF832008DF8330002208DF831000BA96C
:101980008948FFF7DBFA062207218748FFF71EFB8D
:1019900006220A218448FFF719FB06220C218248FF
:1019A000FFF714FB0121C803FFF734FD7F48FFF761
:1019B00049FE4FF47A5008904FF40070ADF81E00C5
:1019C000ADF818000020ADF81C00ADF81A00ADF815
:1019D000240006A97548FFF70FFC01217348FFF7A3
:1019E000FFFB01214805FFF715FD7148029000201B
:1019F000ADF80C004FF48060ADF812000001ADF8B6
:101A000014004BF6FF70ADF80E006320ADF8100027
:101A100002A96848FFF762FB01216648FFF71CFB3B
:101A200010215E48FFF7F5FA002500E06D1C6248C2
:101A30008542FBD300208DF8000099208DF801002D
:101A40000221684600F082FA47208DF800008020CD
:101A50008DF801000221684600F078FA322000F08B
:101A600005FA044632208DF8000044F080008DF81D
:101A700001000221684600F069FA322000F0F6F910
:101A8000044632208DF8000004F07F008DF801003C
:101A90000221684600F05AFA00208DF800008DF807
:101AA00001000221684600F051FA02208DF8000082
:101AB00001208DF801000221684600F047FA042059
:101AC0008DF80000AF208DF801000221684600F07B
:101AD0003DFA05208DF8000080208DF801000221DC
:101AE000684600F033FA06208DF8000007208DF8D4
:101AF00001000221684600F029FA02208DF800005A
:101B00009E208DF801000221684600F01FFA0A208D
:101B10008DF8000000208DF801000221684600F0D9
:101B200015FA0E208DF8000004208DF80100022126
:101B3000684600F00BFA27208DF8000000208DF891
:101B400001000221684600F001FA1F208DF8000014
:101B50000F208DF801000221684600F0F7F91A20E5
:101B60008DF800007F208DF801000221684600F00A
:101B7000EDF91B208DF800007F208DF80100022177
:101B8000684600F0E3F905481430006840F400406E
:101B90000249143108600DB030BD0000000C024055
:101BA000000402400000024000080240003C0040E7
:101BB000A086010000540040002D310110B5012223
:101BC00071210248FFF78DFD10BD0000003C004070
:101BD00070B504460D4600BF02210A48FFF75EFDBE
:101BE0000028F9D021460748FFF78EFD00BF0221EB
:101BF0000448FFF753FD0028F9D029460148FFF7B4
:101C000083FD70BD003C004010B50A490968088892
:101C1000FFF786F907490968496831F81040054916
:101C200009680888FFF77CF902490968088020469E
:101C300010BD00001800002010B5044608490968CE
:101C40004888FFF76DF9064909684880044800682C
:101C5000406803490968498820F8114010BD000018
:101C60001800002000200849096808800649096812
:101C7000488006480449096848604FF400600249FA
:101C80000968088170470000180000200404002043
:101C900086B02648006840F00900244908602448BE
:101CA000006840F0AA402249086088142049183191
:101CB000088001A8FFF7DEFB1C48006840F4805054
:101CC0001A49086019481030006840F480401749EC
:101CD0001031086015483038006840F080601349C2
:101CE00030390860FFF7D8FDFFF7BCFF00F026F899
:101CF00000F0B2F80020059002E00598401C059025
:101D00000C4905988842F8D3FFF758FF0DE000BF53
:101D1000FFF726FB0028FBD1FFF776FF0649088076
:101D2000084601880088FFF753FFF0E7303802408B
:101D3000000C024040420F000000002000B587B0B8
:101D400001210803FFF756FB9FED3E0A3E4880ED58
:101D5000010AB2EE040A80ED020A4FF47A503A49C1
:101D600008800120C88188810846FEF7A1FA012178
:101D70000220FFF73FFB4FF48060059002208DF8B2
:101D8000180000208DF81A008DF81B0002208DF835
:101D9000190005A92D48FFF7D1F805220A212B4883
:101DA000FFF714F901210420FFF724FB0820059018
:101DB00002208DF8180000208DF81A008DF81B0005
:101DC00002208DF8190005A92148FFF7B7F8052270
:101DD00003211F48FFF7FAF824208DF81000012096
:101DE0008DF8110000208DF8120001208DF81300ED
:101DF00004A8FFF7C3FA01218803FFF70BFB4FF498
:101E0000FA4002902020ADF802000020ADF8040056
:101E10000820ADF80C004FF44070ADF80000002031
:101E2000ADF8060069460B48FFF7E6F9012260218C
:101E30000848FFF756FC01210648FFF7D1F907B023
:101E400000BD00000000FA453003002000040240FD
:101E5000000802400038004010B50122602102480D
:101E6000FFF73FFC10BD00000038004070B504468D
:101E7000002500BF4FF400313048FFF711F900286A
:101E8000F8D101212D48FFF7F3F800BF2C492B486A
:101E9000FFF706F90028F9D0002294212748FFF720
:101EA00095F900BF27492548FFF7C1F80028F9D068
:101EB00021462248FFF792F900BF2249891E1F4898
:101EC000FFF7B5F80028F8D001211C48FFF7DCF82F
:101ED00000BF4FF400311948FFF7E2F80028F8D1AD
:101EE00000211648FFF797F801211448FFF7C0F8C2
:101EF00000BF13491148FFF7D3F80028F9D0012299
:101F000094210E48FFF762F900BF0F490B48FFF715
:101F10008EF80028F9D000BF0B493E310748FFF783
:101F200086F80028F8D00548FFF74CF9054601214E
:101F30000248FFF7A9F8284670BD00000054004091
:101F400001000010820007000200030070B5054682
:101F50000E46002400BF4FF400311D48FFF7A0F8E3
:101F60000028F8D101211A48FFF782F800BF19496B
:101F70001748FFF795F80028F9D00022942114485B
:101F8000FFF724F900BF14491148FFF750F8002863
:101F9000F9D00DE0295D0E48FFF720F9601CC4B2AE
:101FA00000BF0D49891E0A48FFF741F80028F8D004
:101FB000B442EFDB00BF0749C91C0548FFF770F8C2
:101FC0000028F8D001210248FFF75EF870BD00003C
:101FD00000540040010000108200070010B591EA93
:101FE000030F48BF83F0004300F13E83841A71EB76
:101FF000030C05D2121943EB0C03001B61EB0C011F
:10200000DFF824E14FEA1154A4EB135C1EEA430FFE
:1020100018BF9EEA445F73D023EA0E03DCF1200E62
:1020200021EA045143F4801332D322FA0CFE10EB60
:102030000E0023FA0CFE41EB0E01CCF1200E03FA48
:102040000EFE10EB0E0051F10001B1F5801FCCF136
:10205000200E32D201EB045112FA0EF2BDE810400C
:1020600058BF7047401C38BF5FEA420218BF704734
:10207000002814BF20F0010041F100014FEA4103A4
:1020800013F5001F38BF7047A1F1C04100F0DEBA60
:10209000012A43EB0302ACF1200CDCF11F0E32BF2E
:1020A0004FF0000E23FA0CF310EB030041EB045148
:1020B000B4EB115FD0D0A1EB045101F580114908B8
:1020C0005FEA300001EB04510ED350F1000038BF3D
:1020D00012FA0EFE08D1BDE81040C9E7401C38BF17
:1020E0005FEA4202CAD1C3E7BDE810404FEA4103AC
:1020F00013F5001F38BF7047A1F1C04100F0A6BA28
:102100009EEA445F08D011EA5E0FBDE8104004BFAC
:1021100001F0004100207047BDE8104070B500F0AC
:1021200047FA00BF64FBBE3E0000E0FF2DE9C0415E
:1021300030B4DFF8A0C23CEA111418BF3CEA131413
:1021400000F0EC8081EA03051CEA111444EAD5741E
:1021500018BF1CEA131500F0C780A4EB05044FF06C
:10216000004545EAC12145EAC32341EA505143EA0B
:10217000525304F17F74994204F500344FEAC020B1
:102180004FEAC22208BF904200F09C804FEA1365DC
:102190000FF24016765D4FEA134506FB05F7C7F1CF
:1021A000807706FB07F74FEAD737A7FB036876422D
:1021B000C8F58038A7FB06CE38BFA8F1010807FB99
:1021C00008E64FF0000EA6FB028CE6FB03CEDCF126
:1021D000000CCEF1004E38BFAEF1010EA6FB0C583C
:1021E0004FF000074FF00005E6FB0E87A1FB08C685
:1021F000A0FB07CE16EB0E0645F10005E1FB0765D7
:1022000015F1E04E7EBFA4F580345FEA46066D41CD
:1022100016F1800745F100054FEA17274FEA0666D9
:1022200047EA0567A6F1DE46B6F1805F4FEA15255D
:102230001FD9384624F0010C05EBC471BCF1FE6FC8
:1022400001EB0C1102D8F0BCBDE8008124425CBF58
:1022500001F5801E9EEAC47F02D4F0BCBDE8008177
:10226000244238D4F0BCA1F1C041BDE8004100F0E7
:10227000EDB94FEAD22242EA43524FEAD323A7FBF9
:1022800002864FEAD02040EA415007FB03661EEA6F
:102290000E0F4FEAD12105FB026658BFA6EB005690
:1022A000B6EB00564FEA520E4EEAC37E18EB0E0E06
:1022B00056EB530EBDD518EB02085E417F1C55F15D
:1022C0000005B6E74FF480154FF000074FF0000609
:1022D0004FF00008ADE7F0BC4FF0000001F1C04145
:1022E00001F00041BDE8008111EA0C1F0CEA131552
:1022F00000D00CE013EA0C1F00F025804FF0000026
:10230000F0BC81EA030101F00041BDE80081F0BCAE
:10231000BDE8004181EA030100F098B9F0BCBDE8D6
:10232000004170B500F044F9097EFC3E00F007B8AA
:1023300081EA03014FF0000001F00041704781EA9B
:10234000030100F083B9F0BCBDE800414FF000008C
:1023500021497047FFFDFBF9F7F5F4F2F0EEEDEBE4
:10236000E9E8E6E4E3E1E0DEDDDBDAD8D7D5D4D393
:10237000D1D0CFCDCCCBCAC8C7C6C5C4C2C1C0BFDF
:10238000BEBDBCBBBAB9B8B7B6B5B4B3B2B1B0AFE5
:10239000AEADACABAAA9A8A8A7A6A5A4A3A3A2A1C9
:1023A000A09F9F9E9D9C9C9B9A9999989797969584
:1023B00095949393929191908F8F8E8E8D8C8C8B20
:1023C0008B8A8989888887878685858484838382A8
:1023D000828181800000FF070000F87F4FEA1153DF
:1023E000A3F58063D3F11E03A8BFD3F1200C08DB53
:1023F0004FF0004242EAC12252EA505232FA03F050
:10240000704709420BD4102BC4BF0020704703F55E
:10241000787CBCF1FF3F05D04FF0FF3070474FF0A4
:102420000000704770B500F0C3F800BF49922480E7
:1024300000207047F0E7B0FA80F310FA03F10AD0F9
:10244000C3F11D0303F580634FEA41504FEA035285
:1024500002EBD12170474FF000007047DFF848C110
:1024600070B51CEA111E1EBF1CEA13159EEA0C0F64
:1024700095EA0C0F00F06F8081EA030423EA4C1305
:102480004EEAD47E21EA4C1141F4801143F48013CA
:10249000AE44A1FB024CA0FB0365AEF17F7E361972
:1024A00055EB0C05A1FB034C4CF10003A0FB021CF7
:1024B00016EB0C06654153F10003094218BF46F0C4
:1024C000010613F4007F0BD14FEA03314FEA0530C8
:1024D000340341EA155140EA16506FF003020AE056
:1024E0004FEAC3214FEAC520F40241EA555140EAC0
:1024F00056506FF0020202EB2E4201EB025585EAC4
:10250000CE710AD05FEA440C18BF24F0004450F1A9
:10251000000041F1000120EAD47040F2FE7C6245E7
:1025200000D270BDA84214BF4FF080444FF0404429
:10253000002E08BF0024BEF1806FA8BFA1F1C041EA
:10254000BDE8704080F282804FF0000001F1C04190
:1025500001F0004170479EEA0C0F0CEA131518BFFA
:1025600095EA0C0F06D04FF0000081EA030E0EF042
:10257000004170BD00F01CF88900013E00F007B872
:1025800000F009B84FEA430C5FEA5C5C08D081EACE
:10259000030100F05BB84FEA410C5FEA5C5CF6D1E6
:1025A0004FF00000014970470000FF070000F87F6E
:1025B0000EF1020E2EF0030E5EF8046B364205D4C7
:1025C000012A43EB030515F5001F12D8012841EB42
:1025D000010C1CF5001F0CD80ED14FEAD17C15F56B
:1025E000001F0CEB4C0C0CF1020C08BF4CEBD37C25
:1025F00004E04FF0080C01E04FEAD37C0CEB4C05F3
:1026000026FA05F606F00706B6F1040C06D20EEB24
:10261000860CBDE870404CF0010C6047DFE80CF020
:10262000090B02024FF000414FF00000A1F500211C
:1026300070BD19461046012851EB010418BFD4F5AE
:10264000001484BF002001F0004170BD0808A0F50F
:1026500000114FEA3101704710B591EA030F48BFEE
:1026600083F000433FF5C2AC841A71EB030C07D230
:1026700012198CF0004C43EB0C03001B61EB0C01B6
:10268000DFF8A4E14FEA1154A4EB135C1EEA430FF8
:1026900018BF9EEA445F00F0B08023EA6E03524206
:1026A00021EA0451C3EB6E0338BF5B1EDCF1200E40
:1026B00025D322FA0CFE10EB0E0043FA0CFE41EB80
:1026C0000E01CCF1200E03FA0EFE10EB0E0051F1BC
:1026D0000001CCF1200E29D412FA0EF201EB0451C4
:1026E000BDE8104058BF7047401C1CBFB2F1004FFE
:1026F000704700280CBF491C20F00100704712EB06
:10270000020E43EB030218BF4FF0010E4EEA4202E5
:10271000ACF1200CDCF11E0E54D943FA0CFE10EB88
:102720000E0051F1FF31CCF11E0ED5D50EF1010E88
:1027300012FA0EFE404141EB010101EB445C5FEAFD
:102740005C5C10D910EBDE7001EB045138BFBEF1B8
:10275000004FBDE8104018BF704700280CBF491C4F
:1027600020F00100704730D24FEAD42C11F500114F
:1027700024F400641BD0B1FA81F20B3AA41AA41E0F
:10278000D2F12003914030FA03F31943904001EB5A
:10279000CC71002C01EB0451BDE81040A8BF70477C
:1027A00001F1C0414FF0000001F000417047B0FA64
:1027B00080F310FA03F100D110BDE41A173C48056C
:1027C000C90AE4E701EB045110BD491001EB0451C3
:1027D000BDE810404FEA300002E04FF000017047C2
:1027E0004A0008BF0042F8D0B2F5001F28BF70476A
:1027F00001F000414FF0000070479EEA445F07D0AF
:1028000011EA5E0FBDE8104004BF002100207047B0
:10281000BDE8104070B5FFF7CBFE00BF40DFF63ECD
:1028200083F00041104670470000E0FF43004FEA8C
:10283000D30C4FEA3C0C43401FBF40070CF16051E2
:1028400013F0FE4F70471CF0006F03D100200CF016
:10285000004170470CF0004343EA507010B540EA65
:10286000CC0000F015F800BF000000924FEA000114
:10287000FFF7ECBE4FF000414FF00000A1F5002142
:1028800070470000014800F04EB800BF0000C07F54
:102890000EF1020E2EF0030E5EF8044B244204D417
:1028A0004FEA4102B2F17F4F11D84FEA4003B3F132
:1028B0007F4F0CD80ED14FEAD07CB2F17F4F0CEB9A
:1028C0004C0C0CF1020C08BF4CEBD17C04E04FF037
:1028D000080C01E04FEAD17C0CEB4C0324FA03F422
:1028E00004F00704B4F1040C06D20EEB840CBDE82E
:1028F00010404CF0010C6047DFE80CF007080202C2
:102900004FF00040A0F5800010BD0846420018BFFF
:10291000D2F1807288BF00F0004010BD4FF04070CF
:10292000E1EE100A70470CF00F03092B08BF0820D6
:1029300000F051800A2B0BD0082B18BF704708BF3E
:102940001CF0400F0AD04FF000004FF0000170471C
:102950001CF0400F18BF4FF0004070471CF0100FE4
:1029600008D020F0704300F07F4242EAD3014FEAE2
:102970004370704700F0604021F07F4242EA00025D
:1029800001F07F4040EA727070474FF0FF0212EA98
:10299000D0521CBF92F0FF038B42C2BFD14200EB6A
:1029A000C1507047002A0AD0002B0BD0002900F03C
:1029B0000040A4BF40F0FE4040F40000704700F02B
:1029C0000040704743024FF00B0C18BF4CF0806C76
:1029D0007FF458AF70471CF4801F11D01CF4E02F17
:1029E00003D06FEACC31490070474FF04050EFF30D
:1029F000008222F0704242EA000282F300887047AF
:102A00004FF0000070470000282A00080000002056
:102A100030030000C4010008582C000830030020D7
:102A20003817000028020008021D000120050102DD
:102A30000304043005060708091120441C15310F52
:102A40002B24400A261F3B19352E4A06221B371518
:102A5000312A46102C25411F3B3450031F183412D5
:102A60002E27430D29223E1C38314D09251E3A18C8
:102A7000342D49132F2844223E3753011D16322C82
:102A8000201D0B27203C1A362F4B07231C381632EB
:102A90002B47112D2642203C3551042019352C603E
:102AA000090E2A233F1D39324E6800097F14302950
:102AB00045233F385480601012152717292C3E18E3
:102AC0002A2D3F2F41445608200930424557475987
:102AD0005C6E1C20052E40435514600546585B6D06
:102AE00008211C60155E70738515272A3C2C3E4119
:102AF000532D3F42544456596B08200945575A6C90
:102B00005C6E71831C20054355586A1460055B6D2B
:102B1000708208211C60157385889A122427392930
:102B20003B3E502A3C3F51415356680820094254CD
:102B30005769596B6E801C2005405255671460051B
:102B4000586A6D7F08211C60157082859727393C73
:102B50004E3E5053653F51546656686B7D082009C0
:102B600057696C7E6E8083951C200555676A7C14BE
:102B700060056D7F829408211C180585979AAC1218
:102B8000100D01030304040606070709090A0110D2
:102B90001E0B0B0D0D0E0E10101111131314140F2C
:102BA0000F101012121313151516161818190160AC
:102BB0000F1A1A1C1C1D1D1F1F2020222223231840
:102BC00060091B1B1C1C1E1E1F1F18101825252604
:102BD000262828292924242525272728282A2A2B7E
:102BE0002B2D2D2E01A00F2F2F31313232343435C1
:102BF00035373738384C2134A01526262727292980
:102C00002A2A2C2C2D2D2F2F30302B2B2C2C34A07E
:102C10001135353636383839393B3B3C3C3E3E3F42
:102C20003F4C60053A3A3B3B181018414142424440
:102C30004445454040414143434444464647474953
:102C4000494A01000F004B4B4D4D4E4E50505151D3
:082C500053535454000000002E
:04000005080002717C
:00000001FF
